:080000000C94BC000C944201B9
:100008000C9400000C9400000C941C030C94000049
:100018000C9400000C9400000C94F5020C9452020D
:100028000C9400000C940D010C9400000C9400003A
:100038000C9439030C9400000C9400000C940000FC
:100048000C9400000C9400000C9400001027E803A6
:1000580064000A0001000010000110000100000007
:1000680000010203404112438081202020202020EB
:100078002020202020200050455547454F5420334C
:100088003037002D2D2D2D2D2D4750532D2D2D2D55
:100098002D2D2D0054686520746573742073746168
:1000A800727465640047707300743D00563D0045E6
:1000B80052524F5220200020202020202020202093
:1000C8002020202020200020205350454544204552
:1000D80052524F520023004E3D202020533D006DC8
:1000E800000001002D4E414E00494E46000080C0E0
:1000F8000100020066000A00470268000D00600166
:10010800720005006D017A000C0072017F00110079
:100118007E018B0011008F019C000400A001AD003E
:100128000300A401B1000300A701B4000800AA015C
:10013800B7001000B201BF000E00C201CF001000CE
:10014800D001BF000400E001AD000200E401DD00C1
:100158001000E601BF000800F601DF000200FE0102
:10016800E70001005503EA0002005903F600000009
:10017800F894EE27ECBBF1E0FBBFEBBFE5BF8DE0E9
:10018800A2E0BB27ED938A95E9F780E094E0A0E62A
:10019800ED930197E9F7E8EFF0E0859195910097E5
:1001A80061F0A591B59105901590BF01F0010590FA
:1001B8000D920197E1F7FB01F0CFEFE5EDBFE4E029
:1001C800EEBFC0E6D1E00C947A03A0910C02B0E037
:1001D800EAE0F0E00E946A0FE0930B02A0910C02A3
:1001E800BB27EAE0F0E00E946F0FE0930A02A091BB
:1001F8000D02B0E0EAE0F0E00E946A0FE093090225
:10020800A0910D02BB27EAE0F0E00E946F0FCE2E0E
:100218000895AA93BA93EA93FA93EFB7EA931A93D5
:100228000A931BB10CB1E12FEC71A9F4E0915103D1
:10023800EF5FE0935103E150F0E0EF5AFD4F008388
:10024800A3E5B3E0ED91FD913196FE93EE933097DF
:1002580011F4689420F80A3211F4E1E05E2E099155
:100268001991E991EFBFF991E991B991A99118957F
:1002780078945524E0E0E093510308950A921A9285
:10028800FA926A937A938A939A93AA93BA93EA937F
:10029800FA93EFB7EA93ECE0F2E0FA93EA93EDE031
:1002A800F2E0FA93EA93AEE0B2E00E94620BE091CA
:1002B8000E02E03009F489DFA0911502A03021F484
:1002C800A0911402A93009F08CC0E0911B02EF5FE5
:1002D800E0931B02F0E0E130A0E0FA0731F4E4E03B
:1002E800EA93A0E00E94E10B71C0E230A0E0FA07B7
:1002F80031F4E5E0EA93A0E00E94E10B67C0E33047
:10030800A0E0FA0731F4E6E0EA93A0E00E94E10BEE
:100318005DC0E430A0E0FA0731F4E7E0EA93A0E03A
:100328000E94E10B53C0E530A0E0FA0731F4E8E0A1
:10033800EA93A0E00E94E10B49C0E630A0E0FA078A
:1003480031F4E9E0EA93A0E00E94E10B3FC0E73016
:10035800A0E0FA0731F4EAE0EA93A0E00E94E10B9A
:1003680035C0E830A0E0FA0731F4EBE0EA93A0E00A
:100378000E94E10B2BC0E930A0E0FA0731F4ECE071
:10038800EA93A0E00E94E10B21C0EA30A0E0FA075E
:1003980031F4EDE0EA93A0E00E94E10B17C0EB30E6
:1003A800A0E0FA0731F4EEE0EA93A0E00E94E10B46
:1003B8000DC0EC30A0E0FA0749F4E3E0EA93A0E0CE
:1003C8000E94E10BA0E6B1E00E94260CA0911B025E
:1003D800AC3021F0AEE30E94060C03C0E0E0E093ED
:1003E8001B02A0911D02A130C0F1E0911F02F0E0B4
:1003F800309769F4ECE0EA93A1E00E94E10BADE6E6
:10040800B1E00E94260CE0911F02EF5F24C0E130AA
:10041800A0E0FA0711F5A0912802B0912902809175
:100428002A0290912B02E0E0F0E060E271E40E9481
:10043800CE0E0E949F0FE1E0EA93A8E3B2E00E948B
:100448001C0AECE0EA93A1E00E94E10BA8E3B2E009
:100458000E94260CE0E0E0931F02E0911502F0E014
:10046800E130A0E0FA0711F4969A05C0E230A0E066
:10047800FA0731F49698E0911502EF5FE0931502C0
:10048800E991EFBFF991E991B991A9919991899170
:1004980079916991F990199009901895AA93EA931E
:1004A800FA93EFB7EA93E0E0EBBBE0911202EF5F5B
:1004B800E0931202F0E0E130A0E0FA0779F4A091AD
:1004C8001402A23010F0BB2031F4E991EFBFF9918A
:1004D800E991A9911895D99AEB2D78C0E230A0E05E
:1004E800FA0779F4A0911402A33010F0882031F4AF
:1004F800E991EFBFF991E991A9911895DA9AE82D58
:1005080065C0E330A0E0FA07A1F4A0911402A4307A
:1005180038F0A93021F4A0911502A03009F006C0E6
:10052800E991EFBFF991E991A9911895DB9AE92D25
:100538004DC0E430A0E0FA0791F4A0911402A53070
:1005480020F0A0910B02A03031F4E991EFBFF991AE
:10055800E991A9911895DC9AE0910B0237C0E53032
:10056800A0E0FA0771F4A0911402A63030F4E991E2
:10057800EFBFF991E991A9911895DD9AE0910A02E6
:1005880025C0E630A0E0FA0771F4A0911402A73064
:1005980030F4E991EFBFF991E991A9911895DE9AA4
:1005A800E091090213C0E730A0E0FA07A1F4E0E007
:1005B800E0931202A0911402A83030F4E991EFBF41
:1005C800F991E991A9911895DF9AEC2DF0E0E95B92
:1005D800FD4FE081E5BBE991EFBFF991E991A99160
:1005E8001895AA93EA93FA93EFB7EA93EBE0EDBD77
:1005F800ECEDECBDE0911902EF5FE0931902F0E039
:10060800E130A0E0FA0721F4E1E0E09313020AC028
:10061800E230A0E0FA0731F4E2E0E0931302E0E010
:10062800E0931902E991EFBFF991E991A991189521
:10063800AA93EA93EFB7EA93EDE3E4BDE0911E02D3
:10064800EF5FE0931E02A0911E02A73008F0969873
:10065800A0911E02AD3021F4E0E0E0931E02969ACC
:10066800E991EFBFE991A99118950A921A926A93B4
:100678007A938A939A93AA93BA93EA93FA93EFB7E1
:10068800EA931A930A9304B115B1F801A0912402D0
:10069800B09125028091260290912702662777273C
:1006A8000E94F60D0E94300EE0932402F09325027A
:1006B8006093260270932702A0911A02AF5FA0935D
:1006C8001A02A83021F43798E3E0E0931302099165
:1006D8001991E991EFBFF991E991B991A99199918E
:1006E800899179916991199009901895EEEFEABB73
:1006F800E0E0EBBBE7BBE8BBEFEFE4BBE0E0E5BB6A
:10070800E0EEE1BBE0E1E2BBE3E0E3BFE4E6E2BF49
:10071800E0E0ECBFEFBDE4E0EEBDE5E8EDBDEEEEF8
:10072800ECBDE0E0E7BDE6BDEBBDEABDE9BDE8BD77
:10073800E2BDE7E0E5BDEDE3E4BDE0E0E3BDE4E014
:10074800E9BFEBB7E064EBBFE2E0E5BFE0E0E4BFA0
:10075800E0E4EABFE0E0EBB9E0E9EAB9E6E8E0BDE9
:10076800E0E0E0BDE3E3E9B9E0E8E8B9E0ECE7B9E7
:10077800EDE2E6B9E0B7EF71E0BFE0B7E068E0BFEF
:10078800E0E0EDB9E6BF0E94DF0C0E943A0DE0E020
:10079800EA93E1E0EA93A0E00E94440BA0E10E9402
:1007A800370C7894E1E0E0931402E3E0EA93A0E0E8
:1007B8000E94E10BA2E7B1E00E94260CE0E0EA9378
:1007C800A1E00E94E10BAEE7B1E00E94260CA8EB85
:1007D800BBE00E94300DE0E0EA93A1E00E94E10B4B
:1007E800AFE8B1E00E94260CE9B7E160E9BF84995F
:1007F80007C0E9E0EA93E0E0EA93A0E00E94920BE8
:10080800E1E0E0932002E0911402EF5FE09314022C
:10081800E1E0BE2EA8ECB0E00E94300DE091140299
:10082800EF5FE0931402DD24EAE0DE1638F48D2C45
:10083800A8ECB0E00E94300DD394F6CFE0911402FA
:10084800EF5FE0931402DD24EAE0DE1638F49D2C15
:10085800A8ECB0E00E94300DD394F6CFE0911402DA
:10086800EF5FE0931402DD24E3E0DE1640F4D0925B
:100878000B02A8ECB0E00E94300DD394F5CFE091C4
:100888001402EF5FE0931402DD24EAE0DE1640F480
:10089800D0920A02A8ECB0E00E94300DD394F5CFB4
:1008A800E0911402EF5FE0931402DD24E6E0DE1627
:1008B80040F4D0920902A8ECB0E00E94300DD39425
:1008C800F5CFE0911402EF5FE0931402DD24EAE033
:1008D800DE1678F4CD2CE3E0ED1509F4969AE7E0FE
:1008E800ED1509F49698A8ECB0E00E94300DD39469
:1008F800EECFA8EEB3E00E94300DE0911402EF5F56
:10090800E0931402BB2488249924ECE0F2E0FA93E3
:10091800EA93EDE0F2E0FA93EA93AEE0B2E00E94E7
:10092800620B53DC0E94F20BA0EAB1E00E94260C95
:10093800E0E0EA93A1E00E94E10BA4EAB1E00E94A2
:10094800260CEAE0EA93A1E00E94E10BA7EAB1E0F5
:100958000E94260CA0911302A03011F4552009F032
:1009680001C0F8CFE0911302F0E0E130A0E0FA070F
:1009780049F40E943A0DACEC0E94800DA4E40E9458
:10098800800D57C2E230A0E0FA0709F05BC10E946F
:100998003A0DE0931802A0911802A13009F047C15E
:1009A800ACEC0E94800DAEEB0E94800D0E947B0D86
:1009B8006E2E0E947B0D7E2E0E947B0D0E947B0D69
:1009C8000E947B0D0E947B0D0E947B0DE093160216
:1009D8000E947B0DE09317020E947B0DE0E0E71573
:1009E80008F460946694E62DACE2B2E0FF2766272F
:1009F80077270E94F60D0E948B0FE0911602A0E364
:100A0800B2E0FF27662777270E94F60D0E948B0F1A
:100A1800E0911702A4E3B2E0FF27662777270E9438
:100A2800F60D0E948B0F772009F03FC0E0912C0251
:100A3800F0912D0260912E0270912F02A0E0B0E09B
:100A480080E89EE30E94290EE0932C02F0932D0289
:100A580060932E0270932F02A0913002B091310260
:100A68008091320290913302E0913402F091350284
:100A780060913602709137020E94290EDF01CB0186
:100A8800E0913402F091350260913602709137029C
:100A98000E94CE0EA0912C02B0912D0280912E02C0
:100AA80090912F020E94300E56C0E0912C02F091D6
:100AB8002D0260912E0270912F02A0E0B0E080EA32
:100AC8009FE30E94300EE0932C02F0932D02609376
:100AD8002E0270932F02A0913002B09131028091C2
:100AE800320290913302E0913402F0913502609124
:100AF8003602709137020E94290EDF01CB01E09186
:100B08003402F091350260913602709137020E94EA
:100B1800CE0EA0912C02B0912D0280912E029091C0
:100B28002F020E94A90F0E94290EE0932C02F09335
:100B38002D0260932E0270932F02A0912C02B09187
:100B48002D0280912E0290912F02E0E0F0E060E803
:100B58007FEB0E94800EE0932C02F0932D026093AD
:100B68002E0270932F02A0912C02B0912D02809139
:100B78002E0290912F02E0E0F0E060E271E40E9422
:100B8800800EE0932C02F0932D0260932E02709356
:100B98002F02A0912C02B0912D0280912E029091EB
:100BA8002F02E0E0F0E060E271E40E94CE0E0E94C5
:100BB8009F0FE1E0EA93A8E3B2E00E941C0AE2E09A
:100BC800EA93A1E00E94E10BA0912C02B0912D02C2
:100BD80080912E0290912F020E94B60FECF4E9E06A
:100BE800E0932102A0912102AF3F98F4E091210205
:100BF800F0E0E75CFD4FDF01E0912102F0E0E85C06
:100C0800FD4FE081EC93E0912102E150E093210255
:100C1800E9CFEBE2E0933802A8E3B2E00E94260CA9
:100C2800AFED0E94060CA3E40E94060C09C0E2E0A6
:100C3800EA93A1E00E94E10BAAEAB1E00E94260C27
:100C4800379AF7C0E330A0E0FA0709F0F5C0E09161
:100C58001A02F0E0A0912402B091250280912602A8
:100C6800909127020E94450F0E94F60D0E94CE0E19
:100C7800E0932402F09325026093260270932702E2
:100C8800A0912402B091250280912602909127021A
:100C9800E0E0F0E060E870E40E94CE0EE093240209
:100CA800F09325026093260270932702A091150203
:100CB800A13008F444C0AFE0B2E0ED91FD91319667
:100CC800FE93EE93E0910F02F0911002E330A0E062
:100CD800FA07A9F4E1E0E0931502E0E0EA93A0E066
:100CE8000E94E10BA2EBB1E00E94260C5798E0E0CD
:100CF800EA93A0E00E94E10BA2ECB1E01EC0E6304E
:100D0800A0E0FA07E1F4E0E0E0931502E0930F02B7
:100D1800E0931002BB2488249924EA93A0E00E945F
:100D2800E10B579AA0EDB1E00E94260CE0E0EA93AF
:100D3800A0E00E94E10BA0EEB1E00E94260CA09179
:100D48002402B09125028091260290912702E0E0CA
:100D5800F0E06AEE72E40E94130F50F0E0E0F0E079
:100D680064E173E40E94130F11F008F001C02AC077
:100D7800E0911D02EF5FE0931D02E0912402F091E3
:100D880025026091260270912702E0932802F093D1
:100D9800290260932A0270932B02E0911D02F0E071
:100DA800E130A0E0FA0729F4E9B7E064E9BF969AD0
:100DB80008C0E330A0E0FA0721F4E9B7EF7BE9BF08
:100DC80096982CC0A0911D02A13048F0E9B7EF7B9E
:100DD800E9BFE0E0E0931D029698E0931F02A0911E
:100DE8002402B09125028091260290912702E0E02A
:100DF800F0E060E271E40E94CE0E0E949F0FE1E0F5
:100E0800EA93A8E3B2E00E941C0AECE0EA93A1E0AE
:100E18000E94E10BA8E3B2E00E94260CE0E0E09318
:100E28001A02E0932402E0932502E0932602E0935D
:100E38002702E0E0E0931302552009F48BCDE1E0AE
:100E4800E51591F4F8944424E09151034E1660F4AA
:100E5800E42DF0E0EF5AFD4FA081A43219F4E2E04E
:100E68005E2E02C04394F0CFE1E0E51509F400DA04
:100E7800E2E0E51509F068C0E42DF0E0EC5AFD4F1A
:100E8800A081A23571F4E42DF0E0EB5AFD4FA0816A
:100E9800AD3439F4E42DF0E0EA5AFD4FA081A334D3
:100EA80009F002C0E3E05E2EE42DF0E0EC5AFD4FBD
:100EB800A081A63571F4E42DF0E0EB5AFD4FA08136
:100EC800A43539F4E42DF0E0EA5AFD4FA081A734A7
:100ED80009F002C0E5E05E2EE42DF0E0EC5AFD4F8B
:100EE800A081A73491F4E42DF0E0EB5AFD4FA081E6
:100EF800A33559F4E42DF0E0EA5AFD4FA081A63558
:100F080021F4A0911502A43009F002C0E7E05E2E9A
:100F1800E42DF0E0EC5AFD4FA081A73491F4E42DC4
:100F2800F0E0EB5AFD4FA081A73459F4E42DF0E02E
:100F3800EA5AFD4FA081A13421F4A0911502A430F2
:100F480009F002C0E8E05E2EE2E0E51511F490D960
:100F580001CDE3E0E51521F4A0911502A33009F0D5
:100F680099C04424E09151034E1660F4E42DF0E05A
:100F7800EF5AFD4FA081A13419F4E4E05E2E02C0BF
:100F88004394F0CF4424E09151034E1648F4E42DE5
:100F9800F0E0EF5AFD4FA081AC3211F04394F3CF4B
:100FA800E4E0E51509F076C0E42DF0E0EE5AFD4FD7
:100FB800E081E053AAE0EA02F001AE2FE42DF0E070
:100FC800ED5AFD4FE081E053EA0FAE2EE5E1AE1693
:100FD80018F4E3E0AE0E14C0EA2DF0E0E531A0E02D
:100FE800FA0711F4AA240CC0E631A0E0FA0711F4BC
:100FF800E1E005C0E731A0E0FA0711F4E2E0AE2E27
:10100800E42DF0E0EC5AFD4FE081E053AAE0EA025B
:10101800F001AE2FE42DF0E0EB5AFD4FE081AE0F6A
:10102800A053A0930902E42DF0E0EA5AFD4FE081B5
:10103800E053AAE0EA02F001AE2FE42DF0E0E95A0D
:10104800FD4FE081AE0FA053A0931C02AA92E0913D
:101058000902EA930E94920BE0911502EF5FE09378
:101068001502ECE0F2E0FA93EA93EDE0F2E0FA938D
:10107800EA93AEE0B2E00E94620B0E94E900EFE062
:10108800EA93A0E00E94E10BA4EEB1E00E94260CD6
:101098000E943C01E3E0E51511F40E943C01E5E003
:1010A800E515E1F54424E09151034E16B8F5E42D19
:1010B800F0E0EF5AFD4FA081AE3439F4E42DF0E0B2
:1010C800EE5AFD4FA081AC3209F026C0E0E0E09373
:1010D8000F02E0931002E0931102E6E05E2EE09129
:1010E8001502E030C1F4E1E0E0931502E0E0EA9394
:1010F800A0E00E94E10BA6EEB1E00E94260CE0E021
:10110800EA93A0E00E94E10BA6EFB1E00E94260C52
:10111800E0E0E0931B0202C04394C5CFE5E0E5158B
:1011280011F40E943C01E6E0E51509F057C0EFEF25
:10113800AE2E43944394E09151034E16B0F4A39419
:10114800E42DF0E0EF5AFD4FA081AC3259F0AA2D02
:10115800B0E0AE5BBD4FE42DF0E0EF5AFD4FE0810B
:10116800EC9301C002C04394E6CF44244A1448F4E7
:10117800E42DF0E0EE5BFD4FA081AE3211F0439418
:10118800F5CFE42DF0E0E130A0E0FA0739F4E09182
:101198004202E0539E2EE0E08E2E1DC0E230A0E019
:1011A800FA0751F4E0914302E0539E2EE091420287
:1011B800E0538E2EBB2410C0E330A0E0FA0761F4A0
:1011C800E0914402E0539E2EE0914302E0538E2EBC
:1011D800E0914202E053BE2E0E943C01E7E0E51593
:1011E800F1F5AA244424E09151034E16B0F5E42DFC
:1011F800F0E0EF5AFD4FA081AC3269F5A394E3E02B
:10120800EA1549F5E42DF0E0EE5AFD4FE081E05390
:10121800AAE0EA02F001AE2FE42DF0E0ED5AFD4F0E
:10122800E081AE0FA053A0931C02E0911C02F0E0F5
:10123800FA93EA93A8E3B2E00E94EE09E7E0EA93A2
:10124800A0E00E94E10BA8E3B2E00E94260CA0E215
:101258000E94060C02C04394C6CF0E943C01E8E0FD
:10126800E51589F44424E09151034E1660F4E42D09
:10127800F0E0EF5AFD4FA081AD3419F4E9E05E2E9D
:1012880002C04394F0CFE8E0E51511F40E943C0158
:10129800E9E0E51509F09AC0AA244424E091510335
:1012A8004E16B0F5E42DF0E0EF5AFD4FA081AC32B8
:1012B80069F5A394E7E0EA1549F5E42DF0E0EE5A64
:1012C800FD4FE081E053AAE0EA02F001AE2FE42DE1
:1012D800F0E0ED5AFD4FE081AE0FA053A0931C0241
:1012E800E0911C02F0E0FA93EA93A8E3B2E00E94CE
:1012F800EE09E2E0EA93A0E00E94E10BA8E3B2E085
:101308000E94260CA0E20E94060C02C04394C6CF9D
:10131800AA244424E09151034E1608F055C0E42D48
:10132800F0E0EF5AFD4FA081AC3209F04BC0A39416
:10133800E9E0EA1509F046C0E42DF0E0EE5AFD4F69
:10134800E081F0E0F097A4E6B0E00E94520FBF0100
:10135800E42DF0E0ED5AFD4FE081F0E0F097AAE0CF
:10136800B0E00E94520FDB01AE0FBF1FE42DF0E08A
:10137800EC5AFD4FE081F0E0F097EA0FFB1FE09395
:101388002202F0932302FA93EA93A8E3B2E00E94C0
:10139800EE09EAE0EA93A0E00E94E10BA8E3B2E0DC
:1013A8000E94260CAEEFB1E00E94260CA09122020A
:1013B800B0912302A83EE3E0BE0718F4A0E20E9421
:1013C800060C02C04394A6CF0E943C010E943C0137
:1013D800C1CAFFCFBA93AA93A991B991E991F9919A
:1013E80030962AF4E095F09531966DE26D93E89485
:1013F80080E197E20DD088EE93E00AD084E6992741
:1014080007D08AE005D06E2F10D066276C93089518
:101418006627E817F90720F06395E81BF90BC9F769
:10142800662311F416F008956894605D6D9308952D
:10143800BA93AA932497E0E0E883E983EA83EFE389
:10144800EB831A930A93EB85FC85EF3FAFEFFA071E
:1014580049F4EE81FF81FA93EA93ACEEB0E00E9482
:10146800BB0C0AC1EF3FAFE7FA0749F4EE81FF81F1
:10147800FA93EA93ADEEB0E00E94BB0CFDC0AC85D8
:10148800AA2392F4E985FA856B857C850E948A0DEA
:10149800E987FA876B877C87AE81BF811196AE8317
:1014A800BF831197EDE2EC93A885A73010F0E6E032
:1014B800E8871885E12F1150E03079F0AA81BB81C7
:1014C8008C819D81EDECFCEC6CEC7DE30E94800E40
:1014D800EA83FB836C837D83EDCFEA81FB816C819A
:1014E8007D81A985BA858B859C850E94300EE98708
:1014F800FA876B877C8710E0E0E0F0E060E87FE344
:10150800EA83FB836C837D83EA81FB816C817D8127
:10151800A985BA858B859C850E94130FD8F0AA816E
:10152800BB818C819D81E0E0F0E060E271E40E9483
:10153800800EEA83FB836C837D831F5F173248F03C
:10154800EE81FF81FA93EA93A1EFB0E00E94BB0C11
:1015580093C0DACF103049F4AE81BF811196AE83C3
:10156800BF831197E0E3EC9347C0E12F1150E030BF
:1015780009F442C0AA81BB818C819D81EDECFCEC11
:101588006CEC7DE30E94800EA0E0B0E080E09FE379
:101598000E94300EDF01CB010E94A40CEA83FB837A
:1015A8006C837D83A985BA858B859C850E94CE0E28
:1015B8000E94BD0D0E2FAE81BF811196AE83BF83F1
:1015C8001197E05DEC93E02FF0E0AA81BB818C815C
:1015D8009D810E94450F0E94F60D0E94800EA985EC
:1015E800BA858B859C850E94A90F0E94290EE987E0
:1015F800FA876B877C87B9CFE885E030C9F1AE817F
:10160800BF811196AE83BF831197EEE2EC93E88514
:10161800E150E887EF5F61F1A985BA858B859C85E4
:10162800E0E0F0E060E271E40E94800EE987FA876A
:101638006B877C870E94BD0D0E2FAE81BF811196EE
:10164800AE83BF831197E05DEC93E02FF0E0A985AE
:10165800BA858B859C850E94450F0E94F60D0E94D5
:10166800A90F0E94290EE987FA876B877C87CFCF5D
:10167800AE81BF81E0E0EC93198108812D96089531
:10168800AA93EA81E370EA83E981E03019F0EA81FC
:10169800E061EA83E881E03019F0EA81E068EA83F2
:1016A8000E94E40CA0ED0E94180DA7E00E94180DFE
:1016B800AA810E94180D0E94F30CD3C0BA93AA9372
:1016C8000E94E40CA0ED0E94180DA0E00E94180DE5
:1016D8000E94F30C0E94E40CA1ED0E94180DA1E0F9
:1016E8000E94FD0CAE2F0E94C80CA881B981EC9312
:1016F800A1E00E94FD0CAE2F0E94C80CAA81BB81FC
:10170800EC93A0E00E94FD0CAE2F0E94C80CAC81A7
:10171800BD81EC930E94F30C26960895AA930E942B
:10172800E40CA0ED0E94180DA0E00E94180DA881FD
:101738000E94D50CAE2F0E94180DA9810E94D50CCD
:10174800AE2F0E94180DAA810E94D50CAE2F0E94C0
:10175800180D0E94F30C85C0AA93E881E07111F07E
:10176800C39A01C0C398E881E07211F0C49A01C01D
:10177800C498E881E07411F0C59A01C0C598E88161
:10178800E07811F0C69A01C0C6988DE08A95F1F705
:10179800C29A8DE08A95F1F7C2988DE08A95F1F7A3
:1017A8009CC0AA93A881D8DFE881E295E883A88144
:1017B800D3DF85E88A95F1F790C0AA93E881F0E035
:1017C800E75AFC4FE081A981AE0FEBDFE981E09396
:1017D8005D03E881E0935E0322960895A2E0E1DFCD
:1017E800A3E0B0E00E94300DACE0DBDFA1E0D9DF80
:1017F800A3E0B0E00E94300DE0E0E0935E03E093E8
:101808005D030895AA93A881AA3031F0E0915F039F
:10181800A0915D03AE1760F0E0E0EA93A0915E034B
:10182800AF5FA0935E03C9DFA881AA3009F455C051
:10183800E0915D03EF5FE0935D03C09AA881B1DF9B
:10184800C0984BC0BA93AA931A93A981BA81ED9113
:10185800A983BA831E2FE03019F0A12FD3DFF5CF6B
:10186800188123960895AA93BB9ABC9ABD9ABE9AEA
:10187800BA9AB89AB99AC298C098C198E881E09380
:101888005F03E058E0935B03E881E054E0935C0376
:10189800A4E1B0E00E94300DA0E35EDF88EC90E0A8
:1018A8000197F1F7A0E358DF88EC90E00197F1F792
:1018B800A0E352DF88EC90E00197F1F7A0E24CDF5B
:1018C80088EC90E00197F1F7A8E26BDFA4E069DF0C
:1018D800A5E867DFA6E065DF81DF219608950E940D
:1018E800A40F7B816A81F981E88177FB770F67FD17
:1018F8007160972F9E5781F078F0983190F4AA275D
:10190800BB27882708948795B795A7959A95D1F707
:10191800EA23FB23682305C0E8947727EE27FF27EF
:1019280066276F77769508F4606877F9A991B99179
:1019380089919991EA17FB076807790797FB08953A
:101948000E94A40F0E94950F0E94730C0E949A0F88
:1019580019F40E94900F09C0E6F70E94900FA0E0CA
:10196800B0E080E89FE30E94290E24960895BA9378
:10197800AA93E991F991A991B991CD0105900D9298
:101988000020E1F7FC010895AA93E881E295EF7041
:10199800AE2FAA0FAA0FEA0FEE0FA991AF70EA0FA8
:1019A8000895AA93A991EE27AA5012F0E05FFCCF00
:1019B800A65FEA0F0895939891988B9A899815C015
:1019C80089988B98EE270000819B0895839B089542
:1019D80004D0899A02D08B9AE1E06DE007C0899A19
:1019E8008B9A03D08B98F9DF89986BE16A95F1F7A8
:1019F800089578E08B98F1DF839BFECFEEDF889423
:101A0800819908948B9AF1DFEE1F7A9599F77A2FCE
:101A1800772311F4899801C0899ADFDF8B98E5DF75
:101A28008B9ADBDF8998D9CF78E0AA0F10F48998D0
:101A380001C0899ADADF8B98D0DF839BFECFCDDF98
:101A48008B9A7A9591F78998C8DF8B98CEDFE1E079
:101A58008199EE278B9AC1CF109639F080ED97E0E7
:101A68000197F1F7A8951197C9F70895EE2795986A
:101A78008D9A80EC93E00197F1F78D9885E28A952D
:101A8800F1F7859B08958BEC8A95F1F7859BE1E04A
:101A98008CE093E00197F1F708958D9A85E08A9597
:101AA800F1F78D988DE18A95F1F7889485990894D6
:101AB800E79585ED8A95F1F70895E8948D9A85E084
:101AC8008A95F1F770FD8D9883E28A95F1F78599EB
:101AD80003C070FF03C0089570FF089588EC8A95CD
:101AE800F1F78D988DE08A95F1F76894089568E08C
:101AF800D4DF6A95E9F708957A2F68E0EE27DDDFED
:101B080026F477956A95D9F7E3950895309760405C
:101B1800704009F070580895552342F4503811F474
:101B2800E0FF04C03196691F791F6BF050E8572712
:101B380011F45F93CFC05F3F31F0660F000C5795EB
:101B48006795752F08955F9300200AF0CFC0C8C02D
:101B580050E8192E1522880F991F9527550F87953C
:101B680050E8072E0522660F771F7527550F6795D2
:101B78000895689401C0E8945F93F2DF703818F014
:101B88007F3F08F4A7C056E1571BAAF45195583077
:101B98000EF4593030F0EFEFFFEF6FEF7FE777F992
:101BA8001AC077275523B9F0EE0FFF1F661F771F5E
:101BB8005A95D1F710C07727583028F0EF2FF62F15
:101BC800672F5850F9CF552331F076956795F795DB
:101BD800E7955A95D1F700200AF445D15F91089509
:101BE800689401C0E894309760407040B1F00024D8
:101BF80026F0772312F4009436D1172E7EE11120B7
:101C080032F07A95EE0FFF1F661F111CF9CFEF2FE8
:101C1800F62F612D5F938ADF5F9108954F93AF018F
:101C2800FD01DA01AB01BC01CA01402D012C142EC3
:101C38004F910895EA0FFB1F681F0895E095F095EE
:101C48006095EF5FFF4F6F4F08955F9381DF903886
:101C580071F150E8152604C05F937ADF903839F1A6
:101C6800703821F1572F591B2BF112F4D7DFFACF17
:101C7800583118F0AA27BB278827583028F0AB2FEF
:101C8800B82F88275850F9CF552329F08695B7954E
:101C9800A7955A95D9F7502D512572F0CBDF38F416
:101CA8006795F795E795739513F420C0B7DF3EDF86
:101CB8005F910895D8F7FBCFEA1BFB0B680B51F037
:101CC80010F40094BBDF662392F3EE0FFF1F661F2C
:101CD8007A95CBF7EE27FF27662777275F91089538
:101CE800EFEFFFEF6FE77FEF5F910895EFEFFFEF03
:101CF8006FE77FE75F9108955F932ADF703851F3AC
:101D0800903841F301240894791F23F41CF3002030
:101D18003AF3ECCF0F921F932F933F934F931127D2
:101D280022279927689FA0018F9F302D410D591FA9
:101D38006B9F300D411D591F8E9F27D0BF9F25D007
:101D48006A9F23D0BE9F1DD0AF9F1BD0AE9F110DA1
:101D5800291F391F491F591FE32FF42F652F522FB1
:101D68004F913F912F911F910F9066232AF0550FA5
:101D7800EE1FFF1F661F02C073954BF2CDDE5F9109
:101D88000895100D211D391F02C0200D311D491F56
:101D9800591F08955F93DCDE703821F411200AF48E
:101DA8009FCFA4CF903809F495CF01240894970BBE
:101DB8001BF4D4F30020F3CF792F1F932F933F9375
:101DC8004F9311241127222733274427552790E2C0
:101DD800AE17BF078607410730F0AE1BBF0B860B57
:101DE800410B089401C08894551F221F331F111CF2
:101DF800AA1FBB1F881F441F9A9551F7F901612D2F
:101E08004F913F912F911F91662332F0550FEE1F8E
:101E1800FF1F661F7A9543F27FDE5F91089599232D
:101E28009AF0772342F0971748F029F4AE17BF07C6
:101E3800860720F031F0989488940895989408942F
:101E480008951894889408957723C2F7971798F3FC
:101E5800A9F7EA17FB07680788F399F3ECCFF19520
:101E6800E195F0400895F09560957095E195FF4FE4
:101E78006F4F7F4F0895FE2FFF0FFF0B6F2F7F2FA0
:101E880008956F2F660F660B762F0895FA9FF02D31
:101E9800EB9FF00DEA9FE02DF10D08952AD0F6DFB3
:101EA8000EF4DDDF08950024112490E1AA0FBB1F72
:101EB800001C111C0E1A1F0A18F40E0E1F1E01C05A
:101EC800A1609A9599F7FD01D001089512D0EBDF32
:101ED8000EF4C5DF0895E894B7FF04C0A095B09547
:101EE80011966894F7FDBBDFDEDFFD010EF4B7DF66
:101EF8000895E894F7FF02C0B2DF6894B7FF06C000
:101F0800A095B095119600F8039400FA0895ED9302
:101F1800FD936D937C930895E881F9816A817B81B3
:101F28000895A881B9818A819B810895E883F983FE
:101F38006A837B8308957A936A93FA93EA93089560
:101F48009A938A93BA93AA930895182E862F612D8F
:101F5800192E972F712D1B2EBF2FF12D1A2EAE2F54
:101F6800E12D089500240A160B06080609060895AF
:00000001FF
