:1000000045C02FC1FDCFFCCFFBCF7FC16AC12EC140
:10001000F7CFF6CFF5CFF4CFF3CFF2CFF1CFF0CFCC
:10002000EFCFEECFEDCF5ECDED7CB35CDA318990D2
:100030009777C4C7CACCD0D3D5D8DADCDEE02EE6B9
:10004000763D59ADEC18444F4B3BE2E3E5E6E8E979
:10005000EAECEDEEEFF016F2BA1E2CD67647A123AD
:10006000A51DF1F1F2F3F4F4F5F6F6F7F7F8102721
:10007000E80364000A000100001000011000010004
:10008000000000000400080080000000F894EE2743
:10009000ECBBE5BF8DE0A2E0ED938A95E9F780E83F
:1000A000A0E6ED938A95E9F7E4E8F0E08591959173
:1000B000009761F0A591B59105901590BF01F001F1
:1000C00005900D920197E1F7FB01F0CFE0E0E3BB73
:1000D000E4BBE5BBEFEDEDBFC0E84BC1BA93AA931B
:1000E0002A8068807980E2E8E9BFE0E0E21558F410
:1000F000C79A989A9899FECFC798C69A989A98994D
:10010000FECFC698F2CF23960895BA93AA93C798C4
:10011000E2E0E9BF68807980062C0728E9F722969B
:100120000895AA93E881EDD169F4F0D1F2D1F1D12B
:10013000F8D1F7D1E3E03E2EFCD1FED1CFDFFCD1E8
:10014000E4DF4FC0FCD1F1F4E1D1FDD1FFD1E4E017
:10015000EA93FCD1E7E0EA93EFD1FBD1E2E0EA9346
:10016000F5D1E7D1F3D1F9D1E7D1F3D1CFD1E7E0A0
:10017000EA93E2D1B3DFE3E03E2EE4E0EA93A2E3C8
:10018000EFD12FC0EFD1A9F4C1D1EBE0EA93A0E504
:10019000E7D1A2E3EBD1EDD1A4E1E8D1EAD1A4E12A
:1001A000E5D1E7D1A4E1E2D1E4D1A4E6B0E0ADDF4E
:1001B00018C0E430A0E0FA07A1F4E1E03E2ECDD172
:1001C000D8D1E8E0EA93D5D1E7E0EA93D2D1E6E0EE
:1001D000EA93CFD1AED1CDD1A2E3B0E096DFA9D1E1
:1001E000C8D121960895AA931A9319811F3F88F4C4
:1001F000AE81A13009F4BFD1AD81A13009F416BFA1
:10020000AC81A13009F41CBFAA81BB810CD21F5F55
:10021000EDCF16C0AA931A931981113088F0AE81E0
:10022000A13009F4A8D1AD81A13009F416BFAC8189
:10023000A13009F41CBFAA81BB81F5D11150EDCFCB
:10024000188127960895E1EAE0BFE3E0E3BFE1E823
:10025000EFBDE3E0EEBD089593D1E0BFE5E0E3BF7D
:100260000895EA93E5E05E2EE9911895AA93EA9342
:10027000FA93EFB7EA93E1D11BB10CB1E12FEC7126
:1002800071F4E92D9394E0580083E8E0E91509F44E
:100290009924B394E8E0EB1511F4BB24999AE02F6C
:1002A000F0E0E637A0E0FA0711F4E1E011C0E3372F
:1002B000A0E0FA0711F4E2E00BC0E236A0E0FA0792
:1002C00011F4E3E005C0EE36A0E0FA0711F4E4E033
:1002D0005E2E09911991E991EFBFF991E991A991E8
:1002E00018950A92EA93FA93EFB7EA93E1EBE2BF2B
:1002F000F30131973F01062C072809F42224E991E4
:10030000EFBFF991E991099018950A92AA93BA93CF
:10031000EA93FA93EFB7EA93E32DF3D051F436D191
:10032000EA5DFF4F04900CBCA2E3B0E02FD131D1C5
:1003300017C005D151F42AD1E25CFF4F04900CBCE8
:10034000AAE4B0E023D125D10BC00CD149F41ED1D1
:10035000EA5AFF4F04900CBCA2E6B0E017D119D1C5
:100360009898E991EFBFF991E991B991A991099014
:100370001895E0E8E6BDE0E0E6BDEABBEBBBECE8E3
:10038000E7BBE0E0E8BBE0E6E1BBE4E0E2BBE0E0E5
:10039000E0BFE5E0E3BFE0E0E2BFE6BFECBFF0D0E6
:1003A000EDBDE0E0ECBDE5BDE4BDEBBDEABDE9BD02
:1003B000E8BDF4D0E0E4EBBFE3E0E5BFE0E4EABF92
:1003C000E0E0EDB9EBB9E0E9EAB9E6E0E3B9E0E095
:1003D000E2B9E3E3E9B9E0E8E8B9E0E0E1B978944B
:1003E000A8E0B7E020D1A1E0DCD0C798DCD0DDD018
:1003F000DCD0DED0DAD0A7D0DBD0A5D0D6D0DFD00D
:10040000A2D0A1D0E3D09FD0D0D0E1E0F0E0E6D000
:100410005520F1F3E52DF0E0E530A0E0FA07D9F43E
:10042000A1E0BFD0C798BFD0C0D0BFD0C1D0BDD091
:100430008AD0BED088D0B9D0C2D085D084D0C6D022
:1004400082D0B3D0D4D0CAD0E5E0E51519F4E6E007
:10045000D1D0DECF52C073D021F0E630A0E0FA0751
:10046000B9F4A2E09ED0CAD0E4E04E1630F4C29AAD
:10047000CAD0C298C8D04394F7CFC8D064D095D022
:10048000C9D0E6E0E51519F4E7E0B4D0C1CF35C036
:1004900069D021F0E730A0E0FA07B9F4A3E081D0F9
:1004A000ADD0E4E04E1630F4C39AADD0C398ABD0D3
:1004B0004394F7CFABD047D078D0ACD0E7E0E51588
:1004C00019F4E8E097D0A4CF18C0E430A0E0FA0710
:1004D00021F0E830A0E0FA0781F4A4E062D08ED0E9
:1004E000E4E04E1630F4959A8ED095988CD04394D3
:1004F000F7CF8CD028D059D08DD05524992488CFCF
:10050000FFCFF0E0E130A0E0FA070895E2E03E2EF0
:100510000895E7E0EA93AAE0B0E0E0DDA4E1B0E00E
:10052000F4CDEBE0EA93AAE0B0E0D8DDA4E1B0E0DE
:10053000ECCDE5E0EA930895AEE1B0E00895E23055
:10054000A0E0FA070895E1E0EA930895AFE0B0E093
:10055000C5CDC4DDAFE0B0E0D8CDE9E0EA930895C1
:10056000B0E0BCCDE330A0E0FA070895B0E0CDDD07
:10057000F4CFA4E1F5CFE12FF0E0FBBDEABD089593
:10058000E0E0EFBDE1E0EEBDE0E00895E22DF0E057
:100590000895EA0FFB1F04900DBC0895E0E0E9BF49
:1005A0000895BFDDFBCF4FDECECFE0E0EA930895A4
:1005B000E3E0F0E0FA93EA93A0E015DEF6CFE3E0A3
:1005C000F0E0FA93EA93A0E00EDEBDCFE2E0F0E0C7
:1005D000FA93EA93AFEF1EDE9598B5CFFA93EA93BC
:1005E000A0E001DE39DEC39AC29A95980895EAE048
:1005F000F0E008955E2EA4EFB1E015C0C798C3984F
:10060000C29844240895ACE2B1E00DC0A6E9B0E080
:100610000AD0C9CFECDFFA93EA93A0E0E4DD1CDE58
:10062000C39AC29A0895109639F080ED97E0019729
:10063000F1F7A8951197C9F708951A930A930895A9
:00000001FF
