:0C0000000C94FB000C946A020C940000AD
:10000C000C9400000C9400000C9400000C94000064
:10001C000C9400000C9400000C9470020C940000E2
:10002C000C9428010C9400000C9400000C94E40235
:10003C000C9400000C9400000C9400000C94000034
:10004C000C9400000C9400000000000102034041DD
:10005C004243808120003E003C00300020202020C4
:10006C000047505320696E666F2073797374656D09
:10007C00005665722E2031382E30342E3230313904
:10008C00004D38303330204E454F2D4D384E004604
:10009C004C4153482020424E2D32383000505341B1
:1000AC00202047726F7570650050455547454F5479
:1000BC0020333037003A00533D00743D00563D006C
:1000CC004552524F5220200020202020202020205A
:1000DC0020202020202020004E3D202020533D00B9
:1000EC002020202020202020202020202020202004
:1000FC000020204E4F205349474E414C00230047CF
:10010C0050535F4F6B20000001002D4E414E0049B3
:10011C004E46000080C02D4E414E000001000200F2
:10012C0054000A00960256000200600160000200B2
:10013C00620160000200640162000200660164005A
:10014C0002006801660005006A01680010006F017A
:10015C006D0010007F017D000E008F018D000E00E0
:10016C009D019B000C00AB01A9000C00B701B50070
:10017C000200C301C1000300C501C3000300C80194
:10018C00C6000300CB01C9000800CE01CC00100052
:10019C00D601D4000800E601E4001100EE01EC00E9
:1001AC000C00FF01FD0011000B02EC0002001C0210
:1001BC00C10003001E02C30002002102090111004C
:1001CC002302EC00080034020B0102003C02C100C7
:1001DC0002003E026600020040027B0001000703A1
:1001EC00140102000B0320010000F894EE27ECBB75
:1001FC00F1E0FBBFEBBFE5BF8DE0A2E0BB27ED93C9
:10020C008A95E9F780E094E0A0E6ED930197E9F791
:10021C00E8E2F1E085919591009761F0A591B59197
:10022C0005901590BF01F00105900D920197E1F733
:10023C00FB01F0CFEFE5EDBFE4E0EEBFC0E6D1E0AF
:10024C000C94F202AA93EA93FA93EFB7EA931A93F7
:10025C000A931BB10CB1E12FEC71E9F4E0910403AA
:10026C00EF5FE0930403E150F0E0E056FD4F0083B4
:10027C00A0910403A43619F4E0E0E0930403A091E8
:10028C000603AF5FA0930603A43629F4E0E0E093E5
:10029C000603689421F8A0916802A13070F0E091F7
:1002AC006802EF5FE0936802A0916802A33029F422
:1002BC00E1E05E2E099119917BC10A3219F4E1E05B
:1002CC00E09368020991199173C15524E0E0E09321
:1002DC000403E0EAF2E0FA93EA93E0E0EA93A4E69E
:1002EC00B0E00E94130A08950E948F0AA03321F0F7
:1002FC000E948F0A0E94AC09E42DF0E0EE55FD4FF0
:10030C00A0810E94AC09A0E20E94AC090895E09182
:10031C006602EF5FE0936602A0916602A23011F0D4
:10032C00AB30D1F5EEE4F2E0FA93EA93EFE4F2E0CD
:10033C00FA93EA93A0E5B2E00E941F09A091500243
:10034C00A03021F0A0916602AB3019F5A0914E02BD
:10035C00B0E0EAE0F0E00E946C0EE0934D02A09158
:10036C004E02BB27EAE0F0E00E94710EE0934C02D3
:10037C00A0914F02B0E0EAE0F0E00E946C0EE09336
:10038C004B02A0914F02BB27EAE0F0E00E94710EF5
:10039C00CE2EE0E0E0936602A0915902A03021F449
:1003AC00A0915802A03009F064C0E0915D02F0E029
:1003BC003097A1F4689420F820FCFECF0E94950A97
:1003CC00A0E6B1E00E949A0AA2E6B1E00E94CC0934
:1003DC00E0915D02EF5FE0935D024BC0E130A0E085
:1003EC00FA0709F046C0689420F820FCFECF0E9462
:1003FC00950AA4E6B1E00E949A0AA6E6B1E00E9432
:10040C00CC09E0E0E0935D02A0916402AF5FA093A1
:10041C006402AC3309F5E0936402E0916502EF5F8E
:10042C00E0936502689420F820FCFECFE2E00E9485
:10043C00A10AA0916502AA3010F4E2E001C0E1E04B
:10044C00EA93A0E00E948D090E94A50A0E94AE0AC0
:10045C00689420F820FCFECFE4E00E94A10AA09151
:10046C006402AA3020F4A8E6B1E00E94CC090E94F4
:10047C00B20AA0915F02A13030F1E0916002F0E08D
:10048C00309771F4689420F820FCFECF0E94BC0ACF
:10049C00AAE6B1E00E94CC09E0916002EF5F11C0C6
:1004AC00E130A0E0FA0779F4E0916D02F0916E0270
:1004BC000E94C10A20FCFECF0E94BC0A0E94AE0A18
:1004CC00E0E0E09360020895EA93E1E0E0935702E4
:1004DC00E9911895AA93EA93FA93EFB7EA93E0E0BF
:1004EC00EBBBE0915602EF5FE09356020E94D80AF4
:1004FC0059F4BB2021F4A0915802A03009F001C09E
:10050C0057C0D99AEB2D4DC0E230A0E0FA0769F440
:10051C00882031F4BB2021F4A0915802A03009F0BE
:10052C0001C046C0DA9AE82D3CC0E330A0E0FA07DF
:10053C0069F4A0915802A03021F4A0915902A03086
:10054C0009F001C035C0DB9AE92D2BC0E430A0E0E6
:10055C00FA0771F4A0915802A03021F4A0914D0239
:10056C00A03009F001C024C0DC9AE0914D0219C002
:10057C00E530A0E0FA0721F4DD9AE0914C0211C0BD
:10058C00E630A0E0FA0721F4DE9AE0914B0209C0B4
:10059C00E730A0E0FA0751F4E0E0E0935602DF9A6E
:1005AC00EC2DF0E0EA56FD4FE081E5BBE89420F835
:1005BC00E991EFBFF991E991A9911895EA93FA9312
:1005CC00E4B1F5B1E0936B02F0936C02E3E0E093DD
:1005DC005702F991E9911895EEEFEABBE0E0EBBB1D
:1005EC00E7BBE8BBEFEFE4BBE0E0E5BBE0EEE1BB73
:1005FC00E0E1E2BBE3E0E3BFE4E6E2BFE0E0ECBF56
:10060C00EFBDEEBDEDBDECBDE7BDE6BDEBBDEABD9E
:10061C00E9BDE8BDE2BDE7E0E5BDE0E0E4BDE3BD7A
:10062C00E1E0E9BFEBB7EBBFE1E0E5BFE0E0E4BF41
:10063C00EABFEBB9E8E9EAB9E6E8E0BDE0E0E0BD25
:10064C00E3E3E9B9E0E8E8B9E0ECE7B9E5E2E6B9FB
:10065C00E0B7EF71E0BFE0B7E068E0BFE0E0EDB914
:10066C00E6BF0E94D80B0E94330CE0E0EA93E1E075
:10067C00EA93A0E00E940609A0E10E94DD09E1E0F6
:10068C00E09358020E94950AAFE6B1E00E94DD0AA1
:10069C00AFE7B1E00E94E40AE1E00E94A10AAFE8F2
:1006AC00B1E00E94CC09E1E00E94EC0AADE9B1E0B6
:1006BC000E94E40AE3E00E94A10AABEAB1E00E94C6
:1006CC00CC09E3E00E94EC0AA7EBB1E00E94CC0954
:1006DC00849907C0E9E0EA93E0E0EA93A0E00E9485
:1006EC0042097894A6E70E940C0ADD24EAE0DE16A3
:1006FC00C8F48D2C9D2CE2E0DE1608F4BD2CE3E052
:10070C00DE1610F4D0924D02E6E0DE1610F4D09214
:10071C004B02CD2CD0924C02A8ECB0E00E94290CDC
:10072C00D394E4CFA4EFB1E00E94290CE0E0E09375
:10073C005802BB24882499240E949E09E3E00E945D
:10074C00A10AA3ECB1E00E94CC09EAE00E94A10A44
:10075C00A5ECB1E00E94DD0AA8ECB1E00E94CC0946
:10076C00EAE00E94EC0AABECB1E00E94CC09339AAF
:10077C00EBB7E064EBBFE0E4EABFEAE0E0936602CB
:10078C00A0915702A03011F4552009F001C0F8CF08
:10079C00E09157020E94D80A39F5B9DDE091510277
:1007AC00EF5FE0935102A0915102A23089F468945A
:1007BC0020F820FCFECF0E94330CACEC0E94790C8C
:1007CC00A4E40E94790C379AE3E0E0935702D8CF67
:1007DC00A0915102A43039F4E0E0E0935102E2E040
:1007EC00E0935702CDCFBCC1E230A0E0FA0709F08C
:1007FC0039C1689420F820FCFECF0E94330CE093A2
:10080C005C02A0915C02A13009F0ADC0ACEC0E947E
:10081C00790CAEEB0E94790C0E94740C6E2E0E9427
:10082C00740C7E2E0E94740C0E94740C0E94740C2A
:10083C000E94740C689420F820FCFECF0E94740C6B
:10084C00E0935A020E94740CE0935B020E94740CB9
:10085C00E0E0E71508F460946694E62DA0E7B2E0BA
:10086C000E94F00AE0915A02A4E7B2E00E94F00A5A
:10087C00E0915B02A8E7B2E00E94F00A772069F4ED
:10088C000E94F80AA0E0B0E080E89EE30E94010B11
:10089C000E940C0B0E94290D18C00E94F80AA0E0BF
:1008AC00B0E080EA9FE30E94290D0E94330B0E9466
:1008BC000C0B0E94AB0E0E94010B0E943C0BE0E063
:1008CC00F0E060E87FEB0E94790DE0937002F0930A
:1008DC00710260937202709373020E94450B0E9426
:1008EC00790D0E94330B0E94450B0E94C70D0E948C
:1008FC00A10EE1E0EA93ACE7B2E00E9439080E9455
:10090C003C0B0E94B80EE4F4E9E0E0936102A09184
:10091C006102AF3F90F4E0916102F0E00F01E35807
:10092C00FD4FDF01F001E458FD4FE081EC93E091C5
:10093C006102E150E0936102EACFEBE2E0937C02CA
:10094C00689420F820FCFECFE2E00E94EC0A0E94A2
:10095C00AE0AAFED0E94AC09A3E40E94AC09A0E280
:10096C000E94AC090BC0689420F820FCFECFE2E09A
:10097C000E94EC0AAEECB1E00E94CC09A0915902A5
:10098C00A13008F46AC0A0915302A330D0F4E091D6
:10099C005302EF5FE0935302A0915302A33089F40A
:1009AC00EF5FE0935302689420F820FCFECF0E9486
:1009BC00950AA6EDB1E00E944B0BA6EEB1E00E94A9
:1009CC00CC09A4E5B2E0ED91FD913196FE93EE9346
:1009DC00E0915402F0915502E330A0E0FA07B9F42B
:1009EC00E1E0E09359025798BB2488249924689439
:1009FC0020F820FCFECFAEE60E940C0A0E94950A5D
:100A0C00AEEEB1E00E944B0BAFEFB1E024C0E5308D
:100A1C00A0E0FA0711F5E0E0E0935902E0935402EC
:100A2C00E0935502E0935302579A689420F820FC07
:100A3C00FECF0E94950AABE0B2E00E94CC09E3E045
:100A4C000E94A10AACE1B2E00E94CC09EAE00E944B
:100A5C00A10AAEE1B2E00E94CC09379AE3E0E09340
:100A6C0057028ECEE330A0E0FA0709F07CC0A091CB
:100A7C005202A33030F4E0915202EF5FE093520245
:100A8C006FC0E0916B02F0916C020E944E0BEA0F6A
:100A9C00FB1FE0936902F0936A02A0916F02A830E9
:100AAC0008F4379AA0916F02AF5FA0936F02A83041
:100ABC0009F056C037980E944E0BE5E00E94380EA4
:100ACC00E0936902F0936A02E0E0E0936F020E9407
:100ADC00530B0E94C10A20FCFECF0E94BC0A0E944C
:100AEC00AE0A0E944E0BA437E0E0BE0730F00E9425
:100AFC004E0BA439E0E0BE0720F0A0915F02A030BD
:100B0C0009F008C0E1E0E0935F020E94580BA2E6F6
:100B1C000E940C0A0E944E0BA437E0E0BE0730F096
:100B2C000E944E0BA439E0E0BE0708F004C0A0916F
:100B3C005F02A13009F00DC0E0E0E0935F020E947B
:100B4C00530B0E94C10A20FCFECF0E94BC0A0E94DB
:100B5C00AE0A0E94580BE0E0E0936902E0936A024F
:100B6C00E0E0E0935702552009F40ACEE1E0E515E8
:100B7C0071F44424E09104034E1648F40E945E0B79
:100B8C00A43219F4E2E05E2E02C04394F3CFE1E00C
:100B9C00E51511F49ADBF4CDE2E0E51509F040C05F
:100BAC000E94640BA23541F40E946A0BAD3421F40F
:100BBC000E94700BA33409F002C0E3E05E2E0E9489
:100BCC00640BA63541F40E946A0BA43521F40E94F3
:100BDC00700BA73409F002C0E5E05E2E0E94640B96
:100BEC00A73441F40E946A0BA33521F40E94700BC8
:100BFC00A63509F002C0EAE05E2E0E94640BA73411
:100C0C0061F40E946A0BA73441F40E94700BA1346A
:100C1C0021F4A0915302A43009F002C0E9E05E2E49
:100C2C00E2E0E51511F451DBABCDE3E0E51521F481
:100C3C00A0915902A33009F078C04424E091040338
:100C4C004E1648F40E945E0BA13419F4E4E05E2EBB
:100C5C0002C04394F3CFE4E0E51509F066C04424E8
:100C6C00E09104034E1630F40E945E0BAC3211F08E
:100C7C004394F6CFE42DF0E0EF55FD4F0E94760B38
:100C8C00EE55FD4FE081E053EA0FAE2EE5E1AE16D6
:100C9C0018F4E3E0AE0E14C0EA2DF0E0E531A0E06C
:100CAC00FA0711F4AA240CC0E631A0E0FA0711F4FB
:100CBC00E1E005C0E731A0E0FA0711F4E2E0AE2E66
:100CCC00E42DF0E0ED55FD4F0E94760BEC55FD4FF9
:100CDC00E081AE0FA053A0934B02E42DF0E0EB5556
:100CEC00FD4F0E94760BEA55FD4FE081AE0FA053ED
:100CFC00A0935E02AA92E0914B02EA930E944209F1
:100D0C00E0915902EF5FE0935902EAE0E09366024A
:100D1C00689420F820FCFECFEFE00E94A10AA1E22B
:100D2C00B2E00E94CC09D1DA2BCDE3E0E51511F449
:100D3C00CCDA26CDE5E0E51509F04AC04424E09173
:100D4C0004034E1608F044C00E945E0BAE3421F42E
:100D5C000E948F0AAC3209F039C0E0E0E0935402F3
:100D6C00E0935502E6E05E2EE0915902E03069F521
:100D7C00E3E0E09359020E94A50A689420F820FC55
:100D8C00FECF0E94950AA3E2B2E00E944B0BA4E3B3
:100D9C00B2E00E94CC090E94AE0AACE3B2E00E9421
:100DAC00CC09A0916402AA3020F4AEE3B2E00E9418
:100DBC00CC090E94B20AA3E70E940C0AE0E0E0937F
:100DCC006402E0936502E0935D0202C04394B7CFE6
:100DDC00E5E0E51511F479DAD3CCE6E0E51509F098
:100DEC0070C0EFEFAE2E43944394E09104034E1683
:100DFC0098F4A3940E945E0BAC3259F0AA2DB0E08B
:100E0C00A457BD4FE42DF0E0E056FD4FE081EC938C
:100E1C0001C002C04394E9CFE0E0E0936702A091E7
:100E2C006702AA1570F4E0916702F0E0E457FD4FF9
:100E3C00A081AE3231F0E0916702EF5FE093670280
:100E4C00EECFE09167020E94D80A39F4E0918C024F
:100E5C00E0539E2EE0E08E2E1DC0E230A0E0FA079B
:100E6C0051F4E0918D02E0539E2EE0918C02E05300
:100E7C008E2EBB2410C0E330A0E0FA0761F4E091A1
:100E8C008E02E0539E2EE0918D02E0538E2EE09167
:100E9C008C02E053BE2EE0E0E0936702A091670263
:100EAC00AA3068F4E0916702F0E0E457FD4FA0E04F
:100EBC00A083E0916702EF5FE0936702EFCF05DA62
:100ECC005FCCE9E0E51509F074C0AA244424E09154
:100EDC0004034E1698F40E945E0BAC3269F4A39492
:100EEC00E7E0EA1549F4689420F820FCFECFE2E034
:100EFC000E94A10AF9D902C04394E9CFAA24442440
:100F0C00E09104034E1608F052C00E945E0BAC3206
:100F1C0009F04BC0A394E9E0EA1509F046C0E42DB2
:100F2C00F0E0EF55FD4FE081F0E0F097A4E6B0E083
:100F3C000E94540EBF01E42DF0E0EE55FD4FE08110
:100F4C00F0E0F097AAE0B0E00E94540EDB01AE0F87
:100F5C00BF1FE42DF0E0ED55FD4FE081F0E0F09780
:100F6C00EA0FFB1FE0936202F0936302FA93EA9399
:100F7C00ACE7B2E00E940B08689420F820FCFECF8E
:100F8C00EAE00E94A10A0E94AE0AA0E4B2E00E942C
:100F9C00CC09A0916202B0916302A83EE3E0BE07C7
:100FAC0018F4A0E20E94AC0902C04394A9CF8DD9D9
:100FBC00E7CBEAE0E51531F5AA244424E0910403DB
:100FCC004E1600F50E945E0BAC32D1F4A394E3E014
:100FDC00EA15B1F4689420F820FCFECFE091590298
:100FEC00E03021F4ECE00E94A10A7ED9A0915302DA
:100FFC00A43021F4E7E00E94A10A76D966D9C0CBCF
:10100C004394DCCF62D9BCCBFFCFBA93AA93A991FE
:10101C00B991E991F99130962AF4E095F0953196D1
:10102C006DE26D93E89480E197E20DD088EE93E049
:10103C000AD084E6992707D08AE005D06E2F10D00D
:10104C0066276C9308956627E817F90720F06395D7
:10105C00E81BF90BC9F7662311F416F00895689490
:10106C00605D6D930895BA93AA932497E0E0E883AA
:10107C00E983EA83EFE3EB831A930A93EB85FC8510
:10108C00EF3FAFEFFA0739F40E947F0BA6E1B1E016
:10109C000E94230AB1C0EF3FAFE7FA0739F40E9470
:1010AC007F0BA7E1B1E00E94230AA6C0AC85AA235E
:1010BC0062F4E985FA856B857C850E94830C0E941D
:1010CC00840B0E94890BEDE2EC93A885A73010F0FD
:1010DC00E6E0E8871885E12F1150E03039F00E94E6
:1010EC00900B0E94950B0E949C0BF5CF0E94A10BBC
:1010FC000E94290D0E94840B10E0E0E0F0E060E813
:10110C007FE30E949C0B0E94A10B0E940C0E88F0A6
:10111C000E94900B0E94AA0B0E949C0B1F5F17321F
:10112C0038F00E947F0BABE1B1E00E94230A64C04F
:10113C00EACF103029F40E94890BE0E3EC932FC026
:10114C00E12F1150E03059F10E94900B0E94950B49
:10115C00A0E0B0E080E09FE30E94290DDF01CB010D
:10116C000E94610A0E949C0B0E94A10B0E94C70D59
:10117C000E94B60C0E2F0E94890BE02FE05DEC93C1
:10118C00E02FF0E00E94900B0E94470E0E94EF0CA3
:10119C000E94790D0E94B10B0E94B60BD1CFE8854D
:1011AC00E03031F10E94890BEEE2EC93E885E150DE
:1011BC00E887EF5FE9F00E94B10B0E94AA0B0E9436
:1011CC00840BE985FA856B857C850E94B60C0E2F05
:1011DC000E94890BE02FE05DEC93E02FF0E00E9481
:1011EC00B10B0E94470E0E94EF0C0E94B60BDECF93
:1011FC00AE81BF81E0E0EC93198108812D960895B2
:10120C00AA93EA81E370EA83E981E03019F0EA817C
:10121C00E061EA83E881E03019F0EA81E068EA8372
:10122C000E94BB0BA7E00E94110CAA810E94C00B6C
:10123C00BCC0BA93AA930E94BB0BA0E00E94C00B47
:10124C000E94DD0BA1ED0E94110C0E94C40BA88121
:10125C00B981EC930E94C40BAA81BB81EC93A0E0F2
:10126C000E94F60BAE2F0E94780AAC81BD81EC93E4
:10127C000E94EC0B26960895AA930E94BB0BA0E04B
:10128C000E94110CA8810E94850AAE2F0E94110C9D
:10129C00A9810E94850AAE2F0E94110CAA810E947E
:1012AC00850AAE2F0E94C00B80C0AA93E881E07122
:1012BC0011F0C39A01C0C398E881E07211F0C49A8E
:1012CC0001C0C498E881E07411F0C59A01C0C598BA
:1012DC00E881E07811F0C69A01C0C6988DE08A9535
:1012EC00F1F7C29A8DE08A95F1F7C2988DE08A9554
:1012FC00F1F70C94110AAA93A881D7DFE881E29543
:10130C00E883A881D2DF85E88A95F1F784C0AA9397
:10131C00E881F0E0E55FFC4FE081A981AE0FEBDFE7
:10132C00E981E0930F03E881E0931003229608957E
:10133C00A2E00E94CA0BACE0DEDFA1E00E94CA0B67
:10134C00E0E0E0931003E0930F030895AA93A881C3
:10135C00AA3031F0E0911103A0910F03AE1760F0A9
:10136C00E0E0EA93A0911003AF5FA0931003CFDFEE
:10137C00A881AA3009F44FC0E0910F03EF5FE0930E
:10138C000F03C09AA881B7DFC09845C0BA93AA933F
:10139C001A93A981BA81ED91A983BA831E2FE030EB
:1013AC0019F0A12FD3DFF5CF188123960895AA93B6
:1013BC00BB9ABC9ABD9ABE9ABA9AB89AB99AC29874
:1013CC00C098C198E881E0931103E058E0930D03B5
:1013DC00E881E054E0930E03A4E1B0E00E94290CF4
:1013EC000E94D00B0E94D00B0E94D00BA0E25DDFBC
:1013FC0088EC90E00197F1F7A8E27DDFA4E07BDFB9
:10140C00A5E879DFA6E077DF93DF05C0AA935D9BA3
:10141C00FECFE881ECB921960895BA93AA93B981CD
:10142C00A881109631F0FC81EB816A816193119750
:10143C00E9F7EB81FC8125960895BA93AA93E9917B
:10144C00F991A991B991CD0105900D920020E1F788
:10145C00FC0108950E94A60E7B816A81F981E881C6
:10146C0077FB770F67FD7160972F9E5781F078F0AF
:10147C00983190F4AA27BB27882708948795B795AD
:10148C00A7959A95D1F7EA23FB23682305C0E89426
:10149C007727EE27FF2766276F77769508F4606825
:1014AC0077F9A991B99189919991EA17FB07680786
:1014BC00790797FB08950E94A60E0E94970E0E9432
:1014CC00300A0E949C0E19F40E94920E09C0E6F795
:1014DC000E94920EA0E0B0E080E89FE30E94220DF3
:1014EC0024960895AA93E881E295EF70AE2FAA0F87
:1014FC00AA0FEA0FEE0FA991AF70EA0F0895AA9305
:10150C00A991EE27AA5012F0E05FFCCFA65FEA0F7C
:10151C000895E42DF0E0EF55FD4FA0810895E0E033
:10152C00EA93A0E00C948D090E94CC09E6E0EA93C2
:10153C00A0E00C948D09EA93A0E00C948D09E09145
:10154C006502F0E0FA93EA93ACE7B2E00C940B0876
:10155C00ACE7B2E00C94CC09E0916402F0E0FA93B1
:10156C00EA93ACE7B2E00E940B08F2CFECE0EA930E
:10157C00A1E00C948D09662777270E94EF0CDF0100
:10158C00CB01E0E0F0E060E271E40E94C70D0E9444
:10159C00A10EE1E0EA93ACE7B2E00E94390868944E
:1015AC0020F80895F0E0E130A0E0FA0708950E94D9
:1015BC00CC09E0E0EA93A1E00C948D090E94CC09DF
:1015CC00A8EEB3E00E94290C0C949E09EA93A1E0CA
:1015DC000C948D09FF27662777270E94EF0C0E9439
:1015EC008D0E0895E0917002F0917102609172027B
:1015FC007091730208950E94220DE0937002F09393
:10160C00710260937202709373020895A091740238
:10161C00B09175028091760290917702E0917802F8
:10162C00F091790260917A0270917B020E94220DF6
:10163C00DF01CB01E0917802F091790260917A029E
:10164C0070917B020E94C70DA0917002B091710243
:10165C0080917202909173020895E0937002F0935E
:10166C00710260937202709373020895A0917002DC
:10167C00B091710280917202909173020895F6DF1D
:10168C00E0E0F0E060E271E408950E94CC0947CFFD
:10169C00A0916902B0916A020895E0916902F091FB
:1016AC006A020895FADFE0936D02F0936E020895DA
:1016BC00E42DF0E0E056FD4FA0810895E42DF0E01C
:1016CC00ED55FD4FA0810895E42DF0E0EC55FD4F54
:1016DC00A0810895E42DF0E0EB55FD4FA081089515
:1016EC00E081E053AAE0EA02F001AE2FE42DF0E035
:1016FC000895EE81FF81FA93EA930895E987FA87BA
:10170C006B877C870895AE81BF811196AE83BF83B2
:10171C0011970895AA81BB818C819D810895EDEC70
:10172C00FCEC6CEC7DE30E94790D0895EA83FB835D
:10173C006C837D830895EA81FB816C817D81A98511
:10174C00BA858B859C850895E0E0F0E060E271E459
:10175C000E94790D0895A985BA858B859C8508957D
:10176C000E94AB0E0E94220DC9CF0E94DD0BA0ED92
:10177C000C94110C0E94110C0C94EC0BA1E00E9427
:10178C00F60BAE2F0C94780A0E948109A3E0B0E00E
:10179C000C94290CA0E30E945B0988EC90E0019763
:1017AC00F1F70895939897988B9A8F9815C08F9806
:1017BC008B98EE270000879B0895839B089504D097
:1017CC008F9A02D08B9AE1E06DE007C08F9A8B9ACA
:1017DC0003D08B98F9DF8F986BE16A95F1F7089538
:1017EC0078E08B98F1DF839BFECFEEDF88948799AE
:1017FC0008948B9AF1DFEE1F7A9599F77A2F77235D
:10180C0011F48F9801C08F9ADFDF8B98E5DF8B9AEC
:10181C00DBDF8F98D9CF78E0AA0F10F48F9801C036
:10182C008F9ADADF8B98D0DF839BFECFCDDF8B9A3C
:10183C007A9591F78F98C8DF8B98CEDFE1E0879986
:10184C00EE278B9AC1CF109639F080ED97E0019777
:10185C00F1F7A8951197C9F70895EE2795988D9AE9
:10186C0080EC93E00197F1F78D9885E28A95F1F77A
:10187C00859B08958BEC8A95F1F7859BE1E08CE0D4
:10188C0093E00197F1F708958D9A85E08A95F1F729
:10189C008D988DE18A95F1F7889485990894E79550
:1018AC0085ED8A95F1F70895E8948D9A85E08A95EF
:1018BC00F1F770FD8D9883E28A95F1F7859903C055
:1018CC0070FF03C0089570FF089588EC8A95F1F7B6
:1018DC008D988DE08A95F1F76894089568E0D4DFCF
:1018EC006A95E9F708957A2F68E0EE27DDDF26F494
:1018FC0077956A95D9F7E3950895309760407040D5
:10190C0009F070580895552342F4503811F4E0FF53
:10191C0004C03196691F791F6BF050E8572711F4FA
:10192C005F93CFC05F3F31F0660F000C5795679502
:10193C00752F08955F9300200AF0CFC0C8C050E8FF
:10194C00192E1522880F991F9527550F879550E84A
:10195C00072E0522660F771F7527550F679508957B
:10196C00689401C0E8945F93F2DF703818F07F3F01
:10197C0008F4A7C056E1571BAAF4519558300EF441
:10198C00593030F0EFEFFFEF6FEF7FE777F91AC0C8
:10199C0077275523B9F0EE0FFF1F661F771F5A9557
:1019AC00D1F710C07727583028F0EF2FF62F672F7C
:1019BC005850F9CF552331F076956795F795E79503
:1019CC005A95D1F700200AF445D15F910895689497
:1019DC0001C0E894309760407040B1F0002426F0CC
:1019EC00772312F4009436D1172E7EE1112032F0B9
:1019FC007A95EE0FFF1F661F111CF9CFEF2FF62FF4
:101A0C00612D5F938ADF5F9108954F93AF01FD01C4
:101A1C00DA01AB01BC01CA01402D012C142E4F91EF
:101A2C000895EA0FFB1F681F0895E095F0956095E7
:101A3C00EF5FFF4F6F4F08955F9381DF903871F127
:101A4C0050E8152604C05F937ADF903839F170386E
:101A5C0021F1572F591B2BF112F4D7DFFACF583144
:101A6C0018F0AA27BB278827583028F0AB2FB82F9F
:101A7C0088275850F9CF552329F08695B795A79507
:101A8C005A95D9F7502D512572F0CBDF38F4679564
:101A9C00F795E795739513F420C0B7DF3EDF5F91A0
:101AAC000895D8F7FBCFEA1BFB0B680B51F010F431
:101ABC000094BBDF662392F3EE0FFF1F661F7A952F
:101ACC00CBF7EE27FF27662777275F910895EFEF77
:101ADC00FFEF6FE77FEF5F910895EFEFFFEF6FE799
:101AEC007FE75F9108955F932ADF703851F3903848
:101AFC0041F301240894791F23F41CF300203AF3DA
:101B0C00ECCF0F921F932F933F934F9311272227C4
:101B1C009927689FA0018F9F302D410D591F6B9FF6
:101B2C00300D411D591F8E9F27D0BF9F25D06A9F16
:101B3C0023D0BE9F1DD0AF9F1BD0AE9F110D291F70
:101B4C00391F491F591FE32FF42F652F522F4F9127
:101B5C003F912F911F910F9066232AF0550FEE1F86
:101B6C00FF1F661F02C073954BF2CDDE5F91089587
:101B7C00100D211D391F02C0200D311D491F591F89
:101B8C0008955F93DCDE703821F411200AF49FCFA6
:101B9C00A4CF903809F495CF01240894970B1BF42B
:101BAC00D4F30020F3CF792F1F932F933F934F93B0
:101BBC0011241127222733274427552790E2AE17EB
:101BCC00BF078607410730F0AE1BBF0B860B410BDE
:101BDC00089401C08894551F221F331F111CAA1F83
:101BEC00BB1F881F441F9A9551F7F901612D4F9126
:101BFC003F912F911F91662332F0550FEE1FFF1F5F
:101C0C00661F7A9543F27FDE5F91089599239AF0CF
:101C1C00772342F0971748F029F4AE17BF078607D1
:101C2C0020F031F09894889408959894089408952D
:101C3C001894889408957723C2F7971798F3A9F707
:101C4C00EA17FB07680788F399F3ECCFF195E19558
:101C5C00F0400895F09560957095E195FF4F6F4FAA
:101C6C007F4F0895EE230E2EFD0121F0F695E7959A
:101C7C000A94E1F70895FE2FFF0FFF0B6F2F7F2FB4
:101C8C0008956F2F660F660B762F0895FA9FF02D2F
:101C9C00EB9FF00DEA9FE02DF10D08952AD0F6DFB1
:101CAC000EF4D4DF08950024112490E1AA0FBB1F79
:101CBC00001C111C0E1A1F0A18F40E0E1F1E01C058
:101CCC00A1609A9599F7FD01D001089512D0EBDF30
:101CDC000EF4BCDF0895E894B7FF04C0A095B0954E
:101CEC0011966894F7FDB2DFDEDFFD010EF4AEDF76
:101CFC000895E894F7FF02C0A9DF6894B7FF06C007
:101D0C00A095B095119600F8039400FA0895ED9300
:101D1C00FD936D937C930895E881F9816A817B81B1
:101D2C000895A881B9818A819B810895E883F983FC
:101D3C006A837B8308957A936A93FA93EA9308955E
:101D4C009A938A93BA93AA930895182E862F612D8D
:101D5C00192E972F712D1B2EBF2FF12D1A2EAE2F52
:101D6C00E12D089500240A160B06080609060895AD
:00000001FF
